{
  "abi": [
    {
      "inputs": [
        {
          "internalType": "string",
          "name": "_name",
          "type": "string"
        },
        {
          "internalType": "string",
          "name": "_symbol",
          "type": "string"
        }
      ],
      "stateMutability": "nonpayable",
      "type": "constructor"
    },
    {
      "anonymous": false,
      "inputs": [
        {
          "indexed": true,
          "internalType": "address",
          "name": "owner",
          "type": "address"
        },
        {
          "indexed": true,
          "internalType": "address",
          "name": "spender",
          "type": "address"
        },
        {
          "indexed": true,
          "internalType": "uint256",
          "name": "id",
          "type": "uint256"
        }
      ],
      "name": "Approval",
      "type": "event"
    },
    {
      "anonymous": false,
      "inputs": [
        {
          "indexed": true,
          "internalType": "address",
          "name": "owner",
          "type": "address"
        },
        {
          "indexed": true,
          "internalType": "address",
          "name": "operator",
          "type": "address"
        },
        {
          "indexed": false,
          "internalType": "bool",
          "name": "approved",
          "type": "bool"
        }
      ],
      "name": "ApprovalForAll",
      "type": "event"
    },
    {
      "anonymous": false,
      "inputs": [
        {
          "indexed": true,
          "internalType": "address",
          "name": "from",
          "type": "address"
        },
        {
          "indexed": true,
          "internalType": "address",
          "name": "to",
          "type": "address"
        },
        {
          "indexed": true,
          "internalType": "uint256",
          "name": "id",
          "type": "uint256"
        }
      ],
      "name": "Transfer",
      "type": "event"
    },
    {
      "inputs": [
        {
          "internalType": "address",
          "name": "spender",
          "type": "address"
        },
        {
          "internalType": "uint256",
          "name": "id",
          "type": "uint256"
        }
      ],
      "name": "approve",
      "outputs": [],
      "stateMutability": "nonpayable",
      "type": "function"
    },
    {
      "inputs": [
        {
          "internalType": "address",
          "name": "owner",
          "type": "address"
        }
      ],
      "name": "balanceOf",
      "outputs": [
        {
          "internalType": "uint256",
          "name": "",
          "type": "uint256"
        }
      ],
      "stateMutability": "view",
      "type": "function"
    },
    {
      "inputs": [
        {
          "internalType": "uint256",
          "name": "id",
          "type": "uint256"
        }
      ],
      "name": "getApproved",
      "outputs": [
        {
          "internalType": "address",
          "name": "",
          "type": "address"
        }
      ],
      "stateMutability": "view",
      "type": "function"
    },
    {
      "inputs": [
        {
          "internalType": "address",
          "name": "",
          "type": "address"
        },
        {
          "internalType": "address",
          "name": "",
          "type": "address"
        }
      ],
      "name": "isApprovedForAll",
      "outputs": [
        {
          "internalType": "bool",
          "name": "",
          "type": "bool"
        }
      ],
      "stateMutability": "view",
      "type": "function"
    },
    {
      "inputs": [
        {
          "internalType": "address",
          "name": "to",
          "type": "address"
        },
        {
          "internalType": "uint256",
          "name": "id",
          "type": "uint256"
        }
      ],
      "name": "mint",
      "outputs": [],
      "stateMutability": "nonpayable",
      "type": "function"
    },
    {
      "inputs": [],
      "name": "name",
      "outputs": [
        {
          "internalType": "string",
          "name": "",
          "type": "string"
        }
      ],
      "stateMutability": "view",
      "type": "function"
    },
    {
      "inputs": [
        {
          "internalType": "uint256",
          "name": "id",
          "type": "uint256"
        }
      ],
      "name": "ownerOf",
      "outputs": [
        {
          "internalType": "address",
          "name": "owner",
          "type": "address"
        }
      ],
      "stateMutability": "view",
      "type": "function"
    },
    {
      "inputs": [
        {
          "internalType": "address",
          "name": "from",
          "type": "address"
        },
        {
          "internalType": "address",
          "name": "to",
          "type": "address"
        },
        {
          "internalType": "uint256",
          "name": "id",
          "type": "uint256"
        }
      ],
      "name": "safeTransferFrom",
      "outputs": [],
      "stateMutability": "nonpayable",
      "type": "function"
    },
    {
      "inputs": [],
      "name": "symbol",
      "outputs": [
        {
          "internalType": "string",
          "name": "",
          "type": "string"
        }
      ],
      "stateMutability": "view",
      "type": "function"
    },
    {
      "inputs": [],
      "name": "totalSupply",
      "outputs": [
        {
          "internalType": "uint256",
          "name": "",
          "type": "uint256"
        }
      ],
      "stateMutability": "view",
      "type": "function"
    },
    {
      "inputs": [
        {
          "internalType": "address",
          "name": "from",
          "type": "address"
        },
        {
          "internalType": "address",
          "name": "to",
          "type": "address"
        },
        {
          "internalType": "uint256",
          "name": "id",
          "type": "uint256"
        }
      ],
      "name": "transferFrom",
      "outputs": [],
      "stateMutability": "nonpayable",
      "type": "function"
    }
  ],
  "bytecode": {
    "object": "0x60806040523480156200001157600080fd5b5060405162000e0338038062000e0383398101604081905262000034916200011f565b600062000042838262000218565b50600162000051828262000218565b505050620002e4565b634e487b7160e01b600052604160045260246000fd5b600082601f8301126200008257600080fd5b81516001600160401b03808211156200009f576200009f6200005a565b604051601f8301601f19908116603f01168101908282118183101715620000ca57620000ca6200005a565b81604052838152602092508683858801011115620000e757600080fd5b600091505b838210156200010b5785820183015181830184015290820190620000ec565b600093810190920192909252949350505050565b600080604083850312156200013357600080fd5b82516001600160401b03808211156200014b57600080fd5b620001598683870162000070565b935060208501519150808211156200017057600080fd5b506200017f8582860162000070565b9150509250929050565b600181811c908216806200019e57607f821691505b602082108103620001bf57634e487b7160e01b600052602260045260246000fd5b50919050565b601f8211156200021357600081815260208120601f850160051c81016020861015620001ee5750805b601f850160051c820191505b818110156200020f57828155600101620001fa565b5050505b505050565b81516001600160401b038111156200023457620002346200005a565b6200024c8162000245845462000189565b84620001c5565b602080601f8311600181146200028457600084156200026b5750858301515b600019600386901b1c1916600185901b1785556200020f565b600085815260208120601f198616915b82811015620002b55788860151825594840194600190910190840162000294565b5085821015620002d45787850151600019600388901b60f8161c191681555b5050505050600190811b01905550565b610b0f80620002f46000396000f3fe608060405234801561001057600080fd5b50600436106100a95760003560e01c806340c10f191161007157806340c10f191461013657806342842e0e146101495780636352211e1461015c57806370a082311461016f57806395d89b4114610182578063e985e9c51461018a57600080fd5b806306fdde03146100ae578063081812fc146100cc578063095ea7b3146100f757806318160ddd1461010c57806323b872dd14610123575b600080fd5b6100b66101c8565b6040516100c391906108f6565b60405180910390f35b6100df6100da366004610944565b610256565b6040516001600160a01b0390911681526020016100c3565b61010a610105366004610974565b6102d1565b005b61011560025481565b6040519081526020016100c3565b61010a61013136600461099e565b6103b3565b61010a610144366004610974565b61056b565b61010a61015736600461099e565b610579565b6100df61016a366004610944565b610671565b61011561017d3660046109da565b6106d1565b6100b661073c565b6101b86101983660046109fc565b600660209081526000928352604080842090915290825290205460ff1681565b60405190151581526020016100c3565b600080546101d590610a2f565b80601f016020809104026020016040519081016040528092919081815260200182805461020190610a2f565b801561024e5780601f106102235761010080835404028352916020019161024e565b820191906000526020600020905b81548152906001019060200180831161023157829003601f168201915b505050505081565b6000818152600360205260408120546001600160a01b03166102b55760405162461bcd60e51b81526020600482015260136024820152721d1bdad95b88191bd95cdb89dd08195e1a5cdd606a1b60448201526064015b60405180910390fd5b506000908152600560205260409020546001600160a01b031690565b6000818152600360205260409020546001600160a01b03163381148061031a57506001600160a01b038116600090815260066020908152604080832033845290915290205460ff165b6103575760405162461bcd60e51b815260206004820152600e60248201526d1b9bdd08185d5d1a1bdc9a5e995960921b60448201526064016102ac565b60008281526005602052604080822080546001600160a01b0319166001600160a01b0387811691821790925591518593918516917f8c5be1e5ebec7d5bd14f71427d1e84f3dd0314c0f7b2291e5b200ac8c7c3b92591a4505050565b6000818152600360205260409020546001600160a01b0384811691161461040c5760405162461bcd60e51b815260206004820152600d60248201526c333937b690109e9037bbb732b960991b60448201526064016102ac565b6001600160a01b0382166104625760405162461bcd60e51b815260206004820152601860248201527f7472616e7366657220746f207a65726f2061646472657373000000000000000060448201526064016102ac565b61046d833383610749565b6104aa5760405162461bcd60e51b815260206004820152600e60248201526d1b9bdd08185d5d1a1bdc9a5e995960921b60448201526064016102ac565b6001600160a01b03831660009081526004602052604081208054916104ce83610a7f565b90915550506001600160a01b03821660009081526004602052604081208054916104f783610a96565b9091555050600081815260036020908152604080832080546001600160a01b038088166001600160a01b031992831681179093556005909452828520805490911690559051849391928716917fddf252ad1be2c89b69c2b068fc378daa952ba7f163c4a11628f55a4df523b3ef91a4505050565b61057582826107bc565b5050565b6105848383836103b3565b6001600160a01b0382163b158061062d5750604051630a85bd0160e11b8082523360048301526001600160a01b03858116602484015260448301849052608060648401526000608484015290919084169063150b7a029060a4016020604051808303816000875af11580156105fd573d6000803e3d6000fd5b505050506040513d601f19601f820116820180604052508101906106219190610aaf565b6001600160e01b031916145b61066c5760405162461bcd60e51b815260206004820152601060248201526f1d5b9cd85999481c9958da5c1a595b9d60821b60448201526064016102ac565b505050565b6000818152600360205260409020546001600160a01b0316806106cc5760405162461bcd60e51b81526020600482015260136024820152721d1bdad95b88191bd95cdb89dd08195e1a5cdd606a1b60448201526064016102ac565b919050565b60006001600160a01b0382166107205760405162461bcd60e51b81526020600482015260146024820152736f776e6572203d207a65726f206164647265737360601b60448201526064016102ac565b506001600160a01b031660009081526004602052604090205490565b600180546101d590610a2f565b6000836001600160a01b0316836001600160a01b0316148061079057506001600160a01b0380851660009081526006602090815260408083209387168352929052205460ff165b806107b457506000828152600560205260409020546001600160a01b038481169116145b949350505050565b6001600160a01b0382166108095760405162461bcd60e51b81526020600482015260146024820152736d696e7420746f207a65726f206164647265737360601b60448201526064016102ac565b6000818152600360205260409020546001600160a01b03161561085f5760405162461bcd60e51b815260206004820152600e60248201526d185b1c9958591e481b5a5b9d195960921b60448201526064016102ac565b6001600160a01b038216600090815260046020526040812080549161088383610a96565b90915550506002805490600061089883610a96565b909155505060008181526003602052604080822080546001600160a01b0319166001600160a01b03861690811790915590518392907fddf252ad1be2c89b69c2b068fc378daa952ba7f163c4a11628f55a4df523b3ef908290a45050565b600060208083528351808285015260005b8181101561092357858101830151858201604001528201610907565b506000604082860101526040601f19601f8301168501019250505092915050565b60006020828403121561095657600080fd5b5035919050565b80356001600160a01b03811681146106cc57600080fd5b6000806040838503121561098757600080fd5b6109908361095d565b946020939093013593505050565b6000806000606084860312156109b357600080fd5b6109bc8461095d565b92506109ca6020850161095d565b9150604084013590509250925092565b6000602082840312156109ec57600080fd5b6109f58261095d565b9392505050565b60008060408385031215610a0f57600080fd5b610a188361095d565b9150610a266020840161095d565b90509250929050565b600181811c90821680610a4357607f821691505b602082108103610a6357634e487b7160e01b600052602260045260246000fd5b50919050565b634e487b7160e01b600052601160045260246000fd5b600081610a8e57610a8e610a69565b506000190190565b600060018201610aa857610aa8610a69565b5060010190565b600060208284031215610ac157600080fd5b81516001600160e01b0319811681146109f557600080fdfea2646970667358221220c22bd5a31e962cd94379cc30730222f8dd18ca113bf58674e73f6ffba30ec63764736f6c63430008130033",
    "linkReferences": {}
  },
  "methodIdentifiers": {
    "approve(address,uint256)": "095ea7b3",
    "balanceOf(address)": "70a08231",
    "getApproved(uint256)": "081812fc",
    "isApprovedForAll(address,address)": "e985e9c5",
    "mint(address,uint256)": "40c10f19",
    "name()": "06fdde03",
    "ownerOf(uint256)": "6352211e",
    "safeTransferFrom(address,address,uint256)": "42842e0e",
    "symbol()": "95d89b41",
    "totalSupply()": "18160ddd",
    "transferFrom(address,address,uint256)": "23b872dd"
  },
  "id": 20
}